{
  "contractName": "CounterAct",
  "abi": [
    {
      "anonymous": false,
      "inputs": [
        {
          "indexed": false,
          "internalType": "uint256",
          "name": "value",
          "type": "uint256"
        },
        {
          "indexed": false,
          "internalType": "uint256",
          "name": "amount",
          "type": "uint256"
        }
      ],
      "name": "Decrease",
      "type": "event"
    },
    {
      "anonymous": false,
      "inputs": [
        {
          "indexed": false,
          "internalType": "uint256",
          "name": "value",
          "type": "uint256"
        },
        {
          "indexed": false,
          "internalType": "uint256",
          "name": "amount",
          "type": "uint256"
        }
      ],
      "name": "Increase",
      "type": "event"
    },
    {
      "constant": true,
      "inputs": [],
      "name": "value",
      "outputs": [
        {
          "internalType": "uint256",
          "name": "",
          "type": "uint256"
        }
      ],
      "payable": false,
      "stateMutability": "view",
      "type": "function"
    },
    {
      "constant": false,
      "inputs": [
        {
          "internalType": "uint256",
          "name": "amount",
          "type": "uint256"
        }
      ],
      "name": "increase",
      "outputs": [],
      "payable": false,
      "stateMutability": "nonpayable",
      "type": "function"
    },
    {
      "constant": false,
      "inputs": [
        {
          "internalType": "uint256",
          "name": "amount",
          "type": "uint256"
        }
      ],
      "name": "decrease",
      "outputs": [],
      "payable": false,
      "stateMutability": "nonpayable",
      "type": "function"
    }
  ],
  "bytecode": "0x608060405234801561001057600080fd5b506101a1806100206000396000f3fe608060405234801561001057600080fd5b50600436106100415760003560e01c80632d6d30621461004657806330f3f0db146100745780633fa4f245146100a2575b600080fd5b6100726004803603602081101561005c57600080fd5b81019080803590602001909291905050506100c0565b005b6100a06004803603602081101561008a57600080fd5b8101908080359060200190929190505050610113565b005b6100aa610166565b6040518082815260200191505060405180910390f35b8060008082825403925050819055507fa7ae29f202c6d397f6ddef05f03b5931a083b61a1600c15be6d48fcb9f7007b260005482604051808381526020018281526020019250505060405180910390a150565b8060008082825401925050819055507fa79208118b7dea0cf7733a97621cb0fdfd52cca70f7731322fdfc557d8d406f760005482604051808381526020018281526020019250505060405180910390a150565b6000548156fea265627a7a7231582048370d863026c2d1bad89a36454732371d373fd824cfcd1e473da6a63575cc5a64736f6c63430005100032",
  "source": "// contracts/CounterAct.sol\npragma solidity 0.5.16;\n\ncontract CounterAct {\n    uint256 public value;\n    event Increase(uint256 value, uint256 amount);\n    event Decrease(uint256 value, uint256 amount);\n\n    function increase(uint256 amount) public {\n      value += amount;\n      emit Increase(value, amount);\n    }\n\n    function decrease(uint256 amount) public {\n      value -= amount;\n      emit Decrease(value, amount);\n    }\n}",
  "sourcePath": "contracts/CounterAct.sol",
  "compiler": {
    "name": "solc",
    "version": "0.5.16+commit.9c3226ce.Emscripten.clang"
  },
  "schemaVersion": "3.0.23",
  "updatedAt": "2020-03-20T03:25:44.252Z",
  "devdoc": {
    "methods": {}
  },
  "userdoc": {
    "methods": {}
  }
}